:100000003FC000006EC000006CC000006AC000006D
:1000100068C0000066C0000064C0000062C000004C
:1000200060C000005EC000005CC000005AC000005C
:1000300058C0000056C0000054C0000053C2000069
:1000400050C000004EC000004CC000004AC000007C
:1000500048C0000046C0000044C0000042C000008C
:1000600040C000003EC000003CC000009BC2000039
:1000700094C200009CC2000034C00000DA02A70451
:1000800011241FBECFEFCDBFDFE3DEBF8091400064
:1000900080934000811105C098ED21E094BF20932A
:1000A00041008CBB29E3A6E0B8E301C01D92A93250
:1000B000B207E1F718E3A0E0B8E3E7E8FEE002C02A
:1000C00005900D92A630B107D9F710E0CFE3D0E04C
:1000D00003C02197FE01B6D4CE33D107D1F7C0D2E9
:1000E000A2C68ECFFC0157854089252F30E0842F92
:1000F00090E0821B930B541710F0CF960895019750
:100100000895FC0195858685981761F0A685AE0F48
:10011000BF2FB11D51968C9196859F5F9F739687D7
:1001200090E008958FEF9FEF0895FC0195858685F7
:10013000981731F08685E80FF11D818990E00895C8
:100140008FEF9FEF0895FC0195852685892F90E01C
:10015000805C9F4F821B91098F7399270895DC0162
:100160000FB607FE04C0809111018823B1F01896E4
:10017000ED91FC911997848185FF0FC01F969C918A
:100180001F9750968C91981304C085818F7D85832D
:100190000895ECE1F8E3E8943FC108950F931F93AD
:1001A000CF93DF93EC018C85982F91609C872F85EE
:1001B000988929130AC0E885F985948195FF05C0BF
:1001C00081FD0DC080E4848312C0062F1F851F5F50
:1001D0001F738889811315C0CE01C1DFFACF8581D5
:1001E0008F77806490E49483E885F9858583E8853A
:1001F000F985628381E090E0DF91CF911F910F91AB
:100200000895EF85EC0FFD2FF11DEF5AFF4F00838E
:100210001F87E885F9858C8581FF09C085818F77E7
:10022000806690E49483E885F9858583E3CF8581B2
:100230008062FBCFCF93DF93EC018C85882359F04C
:10024000E885F985858185FD03C0848186FD03C02D
:10025000CE0185DFF5CFDF91CF9108950895AF925C
:10026000BF92CF92DF92EF92FF920F931F93CF93A3
:10027000DF936C017B018B01040F151FEB015E0105
:10028000AE18BF08C017D10759F06991D601ED919A
:10029000FC910190F081E02DC6010995892B79F739
:1002A000C501DF91CF911F910F91FF90EF90DF90EB
:1002B000CF90BF90AF900895CF92DF92EF92FF92D0
:1002C0000F931F93CF93DF9300D0CDB7DEB78C0190
:1002D000FC011082118212821382148215826983BA
:1002E0001A82CE0101966C01FC0101900020E9F711
:1002F00031977F01E81AF90AB7016F5F7F4F90E0ED
:1003000080E0CBD4F801009791F080839183E28262
:10031000F38224813581232B11F4FC011082F80132
:10032000E482F582B6018081918176D50CC080810E
:100330009181009709F028D4F8011082118214826B
:100340001582128213820F900F90DF91CF911F912F
:100350000F91FF90EF90DF90CF9008950F931F9330
:10036000CF93DF938C01EB01FC0180819181009799
:10037000D1F06881798161157105A1F042815381C5
:100380002C813D814217530768F046D58C819D81B1
:10039000F801848395831C821D82DF91CF911F9188
:1003A0000F910895F1D388819981F8018083918319
:1003B0008A819B81828393838C819D8184839583B1
:1003C000188219821A821B82E6CF90E0FC01EE5956
:1003D000F14720812F3FA9F0FC01E05BF147E0816C
:1003E000E295EE0FF0E0F460662361F02183825C19
:1003F0009147DC018C918061E80FF11D8081877F3E
:10040000808308952283F3CF2F932FB72F938F9359
:100410009F93AF93BF936894CF93DF9320E0C08501
:10042000D8E09089DF01A90FB21FAF5ABF4F8C915E
:1004300020E42C838A839F5F9F738D8127852913F6
:1004400002C08F7D8D83908BDF91CF910EF0A5CE72
:10045000BF91AF919F918F912F912FBF2F91FF91BE
:10046000EF9118952F932FB72F933F938F939F93CF
:10047000CF93DF93C085D8E0898198818674880FF7
:100480003485382B82FD0DC0C58581E08C0F8F73BC
:100490002685281791F0CE0FDF2F20E0D21F998BF1
:1004A00085873487DF91CF919F918F913F912F91D5
:1004B0002FBF2F91FF91EF9118953064F2CFFF93EA
:1004C0008F938FB78F93F8E08081848187FFFCCF73
:1004D00085818F7B806885838F918FBF8F91FF91FE
:1004E000EF9118951F920F920FB60F9211242F9330
:1004F0003F934F935F936F938F939F93AF93BF936C
:100500008091183890911938A0911A38B0911B3801
:1005100040911638509117389A012C5E3F4F283E73
:1005200063E0360798F50196A11DB11D209316389A
:10053000309317388093183890931938A0931A384D
:10054000B0931B388091123890911338A0911438D1
:10055000B09115380196A11DB11D8093123890936A
:100560001338A0931438B093153881E080938D0A26
:10057000BF91AF919F918F916F915F914F913F91FB
:100580002F910F900FBE0F901F9018959A01245D28
:1005900033400296A11DB11DC9CFEF93FF93ECE14B
:1005A000F8E332CFEF93FF93ECE1F8E35BCFEF9307
:1005B000E0E285CFCF93DF9310921E3810921F3860
:1005C00088EE93E0A0E0B0E080932038909321384B
:1005D000A0932238B093233888E79EE880931C3894
:1005E00090931D3880E098E08093243890932538CC
:1005F0001092263810922738CDEAD8E31882198253
:100600001A821B821C821D8261E070E090E080E013
:1006100044D3009791F0888399831A821B822C819E
:100620003D81232B11F4FC0110821C821D8266E89F
:100630007EE888819981F0D30BC0888199810097E9
:1006400009F0A2D2188219821C821D821A821B8292
:100650002696F9E3C532DF0789F6DF91CF91089539
:10066000CF93DF93CDB7DEB72697CDBFDEBF88ED42
:1006700090E084BF9093610083E5809302068AE056
:100680008093050680E28093030681E08093000654
:100690008093030A9EEF9093260A9093270A9BE08B
:1006A0009093000A2DEF31E02093AE0A3093AF0A09
:1006B0001092810A90E89093820A80938C0A81E1DB
:1006C0008093800A789461E085E07FDE60E084E0DA
:1006D0007CDE60E082E079DE60E083E076DE10922E
:1006E0000E3810920F3836E0332E40E1242E412C84
:1006F00052E0552E809111388093103820912804B3
:1007000091E0322F307225FF90E0909311388111E3
:1007100041C0332309F43EC080910E3890910F38C8
:10072000389EF001399EF00D1124E355F74C80817D
:10073000918160E0009709F019D16111A4C0209265
:1007400026048091200484FD0AC09FB7F89480910C
:1007500034046111A5C0877F809334049FBF8091CA
:100760000E3890910F38389EF001399EF00D11240B
:10077000E355F74C44815581608171818CE198E3A8
:100780006EDD80910E3890910F38019680930E386F
:1007900090930F3880910E3890910F3845970CF454
:1007A000A9CF10920E3810920F3810921138109273
:1007B00010388091000609EF12E8882369F0309222
:1007C000060621E02093080680910B0680FFFCCFEF
:1007D000009110061091110600930C3810930D38FB
:1007E0008091000629EFC22E22E8D22E882371F0D4
:1007F00037E03093060681E08093080680910B066F
:1008000080FFFCCFC0901006D090110610920A38DD
:1008100010920B384092083850920938E09008380E
:10082000F09009381E141F040CF04AC048018E18BD
:100830009F0860900A3870900B38369CC001379C36
:10084000900D11249C012355374C590197FC2AC067
:1008500061E3CE01019630DDBE016F5F7F4FC501C0
:100860007DDD89819A8190D13FEF631A730A60928E
:100870000A3870920B38F594E794E0920838F092B9
:1008800009388401CBCF643041F480912404209254
:10089000270460912404607154CF2092250451CF25
:1008A00088605ACF60E3CE01019606DDBE016F5F1E
:1008B0007F4FC50153DD89819A8166D14801D4CF2C
:1008C0004092063850920738009106381091073848
:1008D000101611060CF00ECF5601A01AB10A809026
:1008E0000A3890900B38389CC001399C900D112427
:1008F0009C012355374C7901B7FC1BC061E3CE0145
:100900000196DADCBE016F5F7F4FC70127DD898169
:100910009A813AD13FEF831A930A80920A389092D3
:100920000B38159507950093063810930738650125
:10093000CBCF60E3CE010196BFDCBE016F5F7F4F7E
:10094000C7010CDD89819A811FD15601E3CFCF9376
:10095000DF93C5E2D9E326978881998115D188E391
:10096000CD3AD807C1F7DF91CF9108951F93FC01CD
:1009700099278827BC01E89411911032E9F31930C6
:1009800010F01E30C8F31B3249F01D3241F4689458
:1009900005C012D0610F711D811D911D1191105361
:1009A0001A30B8F33EF490958095709561957F4F1D
:1009B0008F4F9F4F1F910895592F482F372F262F64
:1009C000660F771F881F991F660F771F881F991F53
:1009D000620F731F841F951F660F771F881F991F53
:1009E00008952F923F924F925F926F927F928F92D3
:1009F0009F92AF92BF92CF92DF92EF92FF920F93AE
:100A00001F93CF93DF93CDB7DEB7CA1BDB0BCDBFF0
:100A1000DEBF09942A88398848885F846E847D8483
:100A20008C849B84AA84B984C884DF80EE80FD8096
:100A30000C811B81AA81B981CE0FD11DCDBFDEBF34
:100A4000ED010895EE0FFF1F0590F491E02D09943C
:100A50000F931F93CF93DF938230910510F482E0C0
:100A600090E0E0912739F091283930E020E0B0E0C3
:100A7000A0E0309799F42115310509F44AC0281BEC
:100A8000390B24303105D8F58A819B8161157105B8
:100A900089F1FB0182839383FE0111C04081518162
:100AA0000281138148175907E0F04817590799F454
:100AB000109761F012960C93129713961C9332962E
:100AC000CF01DF91CF911F910F91089500932739A6
:100AD00010932839F4CF2115310551F042175307EF
:100AE00038F0A901DB019A01BD01DF01F801C1CF96
:100AF000EF01F9CF8093273990932839CDCFFE01AC
:100B0000E20FF31F81939193225031092883398397
:100B1000D7CF2091253930912639232B41F42091CC
:100B200002383091033820932539309326392091AB
:100B30000038309101382115310541F42DB73EB709
:100B40004091043850910538241B350BE09125392C
:100B5000F0912639E217F307A0F42E1B3F0B28175C
:100B6000390778F0AC014E5F5F4F2417350748F026
:100B70004E0F5F1F409325395093263981939193EF
:100B80009FCFF0E0E0E09CCFCF93DF930097E9F0B8
:100B9000FC01329712821382A0912739B091283933
:100BA000ED0130E020E01097A1F420813181820F27
:100BB000931F20912539309126392817390709F0DC
:100BC00061C0E0932539F0932639DF91CF910895E4
:100BD000EA01CE17DF07E8F54A815B819E014115E6
:100BE0005105B1F7E901EA83FB8349915991C40F9B
:100BF000D51FEC17FD0761F4808191810296840F67
:100C0000951FE90188839983828193818A839B83DD
:100C1000F0E0E0E012968D919C9113970097B9F562
:100C20002D913C911197CD010296820F931F209137
:100C30002539309126392817390739F6309751F57B
:100C40001092273910922839A0932539B09326396C
:100C5000BCCFC283D38340815181840F951FC817B5
:100C6000D90761F44E5F5F4F88819981480F591F02
:100C7000408351838A819B8182839383211531052F
:100C800009F0B0CFE0932739F09328399ECFFD01CA
:100C9000DC01C0CF12821382D7CFB0E0A0E0E2E542
:100CA000F6E0A1CE8C01009741F4CB01D1DE8C019E
:100CB000C801CDB7DEB7E0E1AFCEFC01E60FF71F0C
:100CC0009C0122503109E217F30708F499C0D901B9
:100CD000CD91DC911197C617D70790F0C530D1059B
:100CE00038F3CE0104978617970710F3C61BD70B6E
:100CF0002297C193D1936D937C93CF0145DFD8CFD9
:100D00005B01AC1ABD0A4C018C0E9D1EA0912739C7
:100D1000B0912839512C412CF12CE12C109731F550
:100D200080912539909126398815990509F05CC084
:100D30004616570608F058C0809100389091013847
:100D4000009741F48DB79EB7409104385091053813
:100D5000841B950BE817F90708F052C0E09325397A
:100D6000F0932639F90160837183A2CF8D919C9114
:100D7000119712966C90129713967C901397A81562
:100D8000B90559F56C0142E0C40ED11CCA14DB044C
:100D900020F1AC014A195B09DA011296159780F02F
:100DA0006282738240835183D9016D937C93E114F5
:100DB000F10471F0D7011296ED93FC93139778CF5D
:100DC00022968C0F9D1FF90180839183F301EFCF51
:100DD000E0932739F09328396BCF4816590608F469
:100DE0002C017D01D3019ACFCB0132DE7C0100972B
:100DF00039F0AE01B80107D0C801C6DE870158CF6F
:100E000010E000E055CFFB01DC0102C001900D9223
:100E100041505040D8F70895FB01DC0101900D923C
:100E20000020E1F7089510E0CFE3D0E003C0FE0119
:0E0E300009DE2196C034D107D1F7F894FFCF28
:100E3E000405060705040302010000010203010276
:100E4E000300000000000101010101010202020283
:100E5E000000000010204080201008040201010252
:100E6E0004080204080100000000CE002F017200E9
:090E7E001A01A300810095000097
:060E870000002939800083
:00000001FF
